TRANSFERS 202112183009000000259
0131   001102135031                                                   USD20211218                                                               000000000000000350000000680166           USASUNCION                                                               PYASUNCION                                                    010701                                 CI 1046117                                                     N000000001
0131   001102135045                                                   USD20211218                                                               000000000000000190000000680166           USASUNCION                                                               PYASUNCION                                                    010701                                 CI 4773770                                                     N000000002
0131   001102135058                                                   USD20211218                                                               000000000000003000000000680166           USASUNCION                                                               PYASUNCION                                                    010701                                 CI 1470856                                                     N000000003
01322  001303727898                                                   USD20211218                                                               000000000000000400000000680166           PAASUNCION                                                               PYPEDRO JUAN CABALLERO                                        010701                                 CI 4559109                                                     N000000004
01322  001303728011                                                   USD20211218                                                               000000000000000024990000680166           ARASUNCION                                                               PYPEDRO JUAN CABALLERO                                        010701                                 CI 3830277                                                     N000000005
01322  001303728057                                                   USD20211218                                                               000000000000000070700000680166           ARASUNCION                                                               PYPEDRO JUAN CABALLERO                                        010701                                 CI 6777757                                                     N000000006
01312  001403094028                                                   USD20211218                                                               000000000000000750000000680166           USASUNCION                                                               PYCIUDAD DEL ESTE                                             010701                                 CI 3517384                                                     N000000007
01312  001403094035                                                   USD20211218                                                               000000000000000100000000680166           USASUNCION                                                               PYCIUDAD DEL ESTE                                             010701                                 CI 3517384                                                     N000000008
01312  001403094043                                                   USD20211218                                                               000000000000000225000000680166           USASUNCION                                                               PYCIUDAD DEL ESTE                                             010701                                 CI 3535327                                                     N000000009
01312  001403094045                                                   USD20211218                                                               000000000000000354090000680166           CAASUNCION                                                               PYCIUDAD DEL ESTE                                             010701                                 CI 6828456                                                     N000000010
01312  001403094078                                                   USD20211218                                                               000000000000000104530000680166           ESASUNCION                                                               PYCIUDAD DEL ESTE                                             010701                                 CI 2857859                                                     N000000011
01312  001403094084                                                   USD20211218                                                               000000000000000084610000680166           ESASUNCION                                                               PYCIUDAD DEL ESTE                                             010701                                 CI 2857859                                                     N000000012
01312  001403094090                                                   USD20211218                                                               000000000000000082020000680166           ARASUNCION                                                               PYCIUDAD DEL ESTE                                             010701                                 CI 3254225                                                     N000000013
01312  001403094093                                                   USD20211218                                                               000000000000000900000000680166           USASUNCION                                                               PYCIUDAD DEL ESTE                                             010701                                 CI 2418146                                                     N000000014
01312  001403094145                                                   USD20211218                                                               000000000000000100000000680166           USASUNCION                                                               PYCIUDAD DEL ESTE                                             010701                                 CRCBR8020496-5                                                 N000000015
01312  001403094175                                                   USD20211218                                                               000000000000000600000000680166           BOASUNCION                                                               PYCIUDAD DEL ESTE                                             010701                                 CRCBR9054621-0                                                 N000000016
01312  001403094192                                                   USD20211218                                                               000000000000000053790000680166           CLASUNCION                                                               PYCIUDAD DEL ESTE                                             010701                                 CI 5826189                                                     N000000017
01312  001403094200                                                   USD20211218                                                               000000000000000695000000680166           USASUNCION                                                               PYCIUDAD DEL ESTE                                             010701                                 CI 4652251                                                     N000000018
01312  001403094217                                                   USD20211218                                                               000000000000000056880000680166           ESASUNCION                                                               PYCIUDAD DEL ESTE                                             010701                                 CI 5853957                                                     N000000019
01312  001403094228                                                   USD20211218                                                               000000000000000034990000680166           ARASUNCION                                                               PYCIUDAD DEL ESTE                                             010701                                 CI 2145535                                                     N000000020
01312  001403094244                                                   USD20211218                                                               000000000000000300000000680166           USASUNCION                                                               PYCIUDAD DEL ESTE                                             010701                                 CI 1178964                                                     N000000021
01312  002403094255                                                   USD20211218CI 2046601                                                     000000000000000050000000680166           PYCIUDAD DEL ESTE                                                        ARBUENOS AIRES                                                010701                                                                                                N000000022
01312  001403094271                                                   USD20211218                                                               000000000000000258920000680166           ITASUNCION                                                               PYCIUDAD DEL ESTE                                             010701                                 CI 3378055                                                     N000000023
01312  001403094280                                                   USD20211218                                                               000000000000000103880000680166           ITASUNCION                                                               PYCIUDAD DEL ESTE                                             010701                                 CRCBR10286707-6                                                N000000024
01312  001403094286                                                   USD20211218                                                               000000000000002000000000680166           USASUNCION                                                               PYCIUDAD DEL ESTE                                             010701                                 CI 5583894                                                     N000000025
01312  001403094289                                                   USD20211218                                                               000000000000000060000000680166           UYASUNCION                                                               PYCIUDAD DEL ESTE                                             010701                                 CI 5282805                                                     N000000026
01312  001403094292                                                   USD20211218                                                               000000000000000900000000680166           USASUNCION                                                               PYCIUDAD DEL ESTE                                             010701                                 CI 2531760                                                     N000000027
01312  001403094324                                                   USD20211218                                                               000000000000000250000000680166           BOASUNCION                                                               PYCIUDAD DEL ESTE                                             010701                                 CI 5608803                                                     N000000028
01312  001403094338                                                   USD20211218                                                               000000000000000400000000680166           USASUNCION                                                               PYCIUDAD DEL ESTE                                             010701                                 CI 1382055                                                     N000000029
01312  001403094362                                                   USD20211218                                                               000000000000000100000000680166           PEASUNCION                                                               PYCIUDAD DEL ESTE                                             010701                                 CRCPE41764220                                                  N000000030
01312  001403094381                                                   USD20211218                                                               000000000000000400000000680166           USASUNCION                                                               PYCIUDAD DEL ESTE                                             010701                                 CI 1108607                                                     N000000031
01312  001403094393                                                   USD20211218                                                               000000000000000700000000680166           USASUNCION                                                               PYCIUDAD DEL ESTE                                             010701                                 CI 3536959                                                     N000000032
01312  001403094402                                                   USD20211218                                                               000000000000000120000000680166           USASUNCION                                                               PYCIUDAD DEL ESTE                                             010701                                 CI 2460459                                                     N000000033
01312  001403094403                                                   USD20211218                                                               000000000000000103620000680166           ESASUNCION                                                               PYCIUDAD DEL ESTE                                             010701                                 CI 4233818                                                     N000000034
01312  001403094414                                                   USD20211218                                                               000000000000000270000000680166           USASUNCION                                                               PYCIUDAD DEL ESTE                                             010701                                 CI 3520082                                                     N000000035
01312  002403094456                                                   USD20211218CI 6618520                                                     000000000000000044000000680166           PYCIUDAD DEL ESTE                                                        ARBUENOS AIRES                                                010701                                                                                                N000000036
01312  001403094466                                                   USD20211218                                                               000000000000000078110000680166           BRASUNCION                                                               PYCIUDAD DEL ESTE                                             010701                                 CRCBR13845468-04                                               N000000037
01312  002403094484                                                   USD20211218CI 986161                                                      000000000000000400000000680166           PYCIUDAD DEL ESTE                                                        USMIAMI                                                       010701                                                                                                N000000038
01312  001403094514                                                   USD20211218                                                               000000000000000046930000680166           CAASUNCION                                                               PYCIUDAD DEL ESTE                                             010701                                 CI 4325668                                                     N000000039
01312  001403094515                                                   USD20211218                                                               000000000000000100000000680166           USASUNCION                                                               PYCIUDAD DEL ESTE                                             010701                                 CI 5148153                                                     N000000040
01318  001700964456                                                   USD20211218                                                               000000000000000044270000680166           UYASUNCION                                                               PYSANTA RITA                                                  010701                                 CI 4469315                                                     N000000041
01318  001700964459                                                   USD20211218                                                               000000000000000058980000680166           ARASUNCION                                                               PYSANTA RITA                                                  010701                                 CI 3272980                                                     N000000042
01318  001700964475                                                   USD20211218                                                               000000000000000089560000680166           ARASUNCION                                                               PYSANTA RITA                                                  010701                                 CI 5142853                                                     N000000043
01318  001700964480                                                   USD20211218                                                               000000000000000150000000680166           USASUNCION                                                               PYSANTA RITA                                                  010701                                 CI 6575924                                                     N000000044
01318  001700964489                                                   USD20211218                                                               000000000000000148880000680166           ESASUNCION                                                               PYSANTA RITA                                                  010701                                 CI 4286223                                                     N000000045
01318  002700964535                                                   USD20211218CI 4192409                                                     000000000000000044000000680166           PYSANTA RITA                                                             ARBUENOS AIRES                                                010701                                                                                                N000000046
01318  001700964537                                                   USD20211218                                                               000000000000000050000000680166           USASUNCION                                                               PYSANTA RITA                                                  010701                                 CI 3966506                                                     N000000047
01318  001700964539                                                   USD20211218                                                               000000000000000053440000680166           ESASUNCION                                                               PYSANTA RITA                                                  010701                                 CI 4312704                                                     N000000048
01318  001700964552                                                   USD20211218                                                               000000000000000099970000680166           ARASUNCION                                                               PYSANTA RITA                                                  010701                                 CI 3202901                                                     N000000049
01318  001700964571                                                   USD20211218                                                               000000000000000029410000680166           ARASUNCION                                                               PYSANTA RITA                                                  010701                                 CI 7691266                                                     N000000050
0132   001802007179                                                   USD20211218                                                               000000000000000450000000680166           USASUNCION                                                               PYASUNCION                                                    010701                                 CI 4544743                                                     N000000051
0132   001802007199                                                   USD20211218                                                               000000000000000300000000680166           USASUNCION                                                               PYASUNCION                                                    010701                                 CI 7593146                                                     N000000052
0132   001802007220                                                   USD20211218                                                               000000000000000080000000680166           USASUNCION                                                               PYASUNCION                                                    010701                                 CI 5278051                                                     N000000053
0132   001802007230                                                   USD20211218                                                               000000000000000090000000680166           USASUNCION                                                               PYASUNCION                                                    010701                                 CI 662132                                                      N000000054
0132   001802007241                                                   USD20211218                                                               000000000000001000000000680166           UYASUNCION                                                               PYASUNCION                                                    010701                                 CI 3634591                                                     N000000055
0132   001802007254                                                   USD20211218                                                               000000000000000550000000680166           USASUNCION                                                               PYASUNCION                                                    010701                                 CI 508284                                                      N000000056
0132   001802007261                                                   USD20211218                                                               000000000000000250000000680166           USASUNCION                                                               PYASUNCION                                                    010701                                 CI 1016711                                                     N000000057
0132   001802007265                                                   USD20211218                                                               000000000000000950000000680166           USASUNCION                                                               PYASUNCION                                                    010701                                 CI 8196896                                                     N000000058
0132   001802007267                                                   USD20211218                                                               000000000000000800000000680166           USASUNCION                                                               PYASUNCION                                                    010701                                 CI 8196896                                                     N000000059
0132   001802007275                                                   USD20211218                                                               000000000000000222000000680166           USASUNCION                                                               PYASUNCION                                                    010701                                 CI 2405597                                                     N000000060
0132   001802007289                                                   USD20211218                                                               000000000000000220000000680166           USASUNCION                                                               PYASUNCION                                                    010701                                 CI 8546581                                                     N000000061
0132   001802007296                                                   USD20211218                                                               000000000000001000000000680166           BOASUNCION                                                               PYASUNCION                                                    010701                                 CI 1256300                                                     N000000062
0132   001802007322                                                   USD20211218                                                               000000000000000100000000680166           UYASUNCION                                                               PYASUNCION                                                    010701                                 CI 1207042                                                     N000000063
0132   001802007326                                                   USD20211218                                                               000000000000000500000000680166           USASUNCION                                                               PYASUNCION                                                    010701                                 CI 4661853                                                     N000000064
0132   001802007331                                                   USD20211218                                                               000000000000001000000000680166           USASUNCION                                                               PYASUNCION                                                    010701                                 CRCBR48719349-0                                                N000000065
0132   001802007333                                                   USD20211218                                                               000000000000000140000000680166           USASUNCION                                                               PYASUNCION                                                    010701                                 CI 3822834                                                     N000000066
0132   001802007334                                                   USD20211218                                                               000000000000001000000000680166           USASUNCION                                                               PYASUNCION                                                    010701                                 CRCBR48719349-0                                                N000000067
0132   001802007339                                                   USD20211218                                                               000000000000000390000000680166           USASUNCION                                                               PYASUNCION                                                    010701                                 CI 1165272                                                     N000000068
0132   001802007344                                                   USD20211218                                                               000000000000005000000000680166           USASUNCION                                                               PYASUNCION                                                    010701                                 CI 523148                                                      N000000069
0132   001802007346                                                   USD20211218                                                               000000000000000120000000680166           USASUNCION                                                               PYASUNCION                                                    010701                                 CI 2491750                                                     N000000070
0132   001802007353                                                   USD20211218                                                               000000000000002000000000680166           USASUNCION                                                               PYASUNCION                                                    010701                                 CI 2984697                                                     N000000071
0132   001802007368                                                   USD20211218                                                               000000000000000155550000680166           ARASUNCION                                                               PYASUNCION                                                    010701                                 CI 4272311                                                     N000000072
0132   001802007373                                                   USD20211218                                                               000000000000000111080000680166           CLASUNCION                                                               PYASUNCION                                                    010701                                 CI 3862387                                                     N000000073
0132   001802007378                                                   USD20211218                                                               000000000000000630000000680166           USASUNCION                                                               PYASUNCION                                                    010701                                 CI 2057289                                                     N000000074
0132   001802007381                                                   USD20211218                                                               000000000000000410000000680166           USASUNCION                                                               PYASUNCION                                                    010701                                 CI 2057289                                                     N000000075
0132   002802007382                                                   USD20211218CI 494532                                                      000000000000000063000000680166           PYASUNCION                                                               ITGENOVA                                                      010701                                                                                                N000000076
0132   001802007393                                                   USD20211218                                                               000000000000000200000000680166           UYASUNCION                                                               PYASUNCION                                                    010701                                 CI 7915014                                                     N000000077
0132   002802007405                                                   USD20211218CI 2041826                                                     000000000000000135000000680166           PYASUNCION                                                               ARFORMOSA                                                     010701                                                                                                N000000078
0132   001802007420                                                   USD20211218                                                               000000000000000100000000680166           USASUNCION                                                               PYASUNCION                                                    010701                                 CI 4615914                                                     N000000079
01320  001902627672                                                   USD20211218                                                               000000000000000099970000680166           ARASUNCION                                                               PYENCARNACION                                                 010701                                 CI 4250452                                                     N000000080
01320  001902627675                                                   USD20211218                                                               000000000000000164960000680166           ARASUNCION                                                               PYENCARNACION                                                 010701                                 CI 4092819                                                     N000000081
01320  001902627694                                                   USD20211218                                                               000000000000000029990000680166           ARASUNCION                                                               PYENCARNACION                                                 010701                                 CI 4741373                                                     N000000082
01320  001902627702                                                   USD20211218                                                               000000000000000047140000680166           ARASUNCION                                                               PYENCARNACION                                                 010701                                 CI 5099967                                                     N000000083
01320  001902627706                                                   USD20211218                                                               000000000000000102450000680166           ESASUNCION                                                               PYENCARNACION                                                 010701                                 CI 2351910                                                     N000000084
01320  001902627709                                                   USD20211218                                                               000000000000000034990000680166           ARASUNCION                                                               PYENCARNACION                                                 010701                                 CI 3260565                                                     N000000085
01320  001902627722                                                   USD20211218                                                               000000000000000022050000680166           ARASUNCION                                                               PYENCARNACION                                                 010701                                 CI 1284481                                                     N000000086
01320  002902627787                                                   USD20211218CI 7335588                                                     000000000000000134000000680166           PYENCARNACION                                                            ARPOSADAS                                                     010701                                                                                                N000000087
01320  002902627790                                                   USD20211218CI 7335588                                                     000000000000000065000000680166           PYENCARNACION                                                            ARPOSADAS                                                     010701                                                                                                N000000088
01320  001902627813                                                   USD20211218                                                               000000000000000763760000680166           BOASUNCION                                                               PYENCARNACION                                                 010701                                 CI 3470149                                                     N000000089
01320  001902627822                                                   USD20211218                                                               000000000000000059980000680166           ARASUNCION                                                               PYENCARNACION                                                 010701                                 CI 4228920                                                     N000000090
0137   0011101982996                                                  USD20211218                                                               000000000000005000000000680166           USASUNCION                                                               PYASUNCION                                                    010701                                 CI 5791956                                                     N000000091
0137   0011101982998                                                  USD20211218                                                               000000000000000692000000680166           USASUNCION                                                               PYASUNCION                                                    010701                                 CI 3886898                                                     N000000092
0137   0011101983008                                                  USD20211218                                                               000000000000000160000000680166           USASUNCION                                                               PYASUNCION                                                    010701                                 CI 397254                                                      N000000093
0137   0011101983010                                                  USD20211218                                                               000000000000000612000000680166           BOASUNCION                                                               PYASUNCION                                                    010701                                 CI 3878220                                                     N000000094
0137   0011101983013                                                  USD20211218                                                               000000000000001380000000680166           USASUNCION                                                               PYASUNCION                                                    010701                                 CI 1217011                                                     N000000095
0137   0011101983015                                                  USD20211218                                                               000000000000000800000000680166           USASUNCION                                                               PYASUNCION                                                    010701                                 CI 5064852                                                     N000000096
0137   0011101983019                                                  USD20211218                                                               000000000000000239220000680166           ESASUNCION                                                               PYASUNCION                                                    010701                                 CI 6326939                                                     N000000097
0137   0011101983027                                                  USD20211218                                                               000000000000000100000000680166           USASUNCION                                                               PYASUNCION                                                    010701                                 CI 529207                                                      N000000098
0137   0011101983038                                                  USD20211218                                                               000000000000000200000000680166           USASUNCION                                                               PYASUNCION                                                    010701                                 CI 1889192                                                     N000000099
0137   0021101983050                                                  USD20211218CI 979885                                                      000000000000000032000000680166           PYASUNCION                                                               ARBUENOS AIRES                                                010701                                                                                                N000000100
0137   0011101983053                                                  USD20211218                                                               000000000000000515000000680166           USASUNCION                                                               PYASUNCION                                                    010701                                 CI 1512142                                                     N000000101
0137   0011101983054                                                  USD20211218                                                               000000000000000200000000680166           USASUNCION                                                               PYASUNCION                                                    010701                                 CI 934061                                                      N000000102
0137   0021101983059                                                  USD20211218CI 487545                                                      000000000000000250000000680166           PYASUNCION                                                               ARBUENOS AIRES                                                010701                                                                                                N000000103
0137   0011101983080                                                  USD20211218                                                               000000000000000045100000680166           USASUNCION                                                               PYASUNCION                                                    010701                                 CI 6310472                                                     N000000104
0137   0011101983088                                                  USD20211218                                                               000000000000000200000000680166           USASUNCION                                                               PYASUNCION                                                    010701                                 CI 2354847                                                     N000000105
0137   0011101983091                                                  USD20211218                                                               000000000000000074980000680166           ARASUNCION                                                               PYASUNCION                                                    010701                                 CI 5018574                                                     N000000106
0137   0011101983129                                                  USD20211218                                                               000000000000000090000000680166           USASUNCION                                                               PYASUNCION                                                    010701                                 CI 2465392                                                     N000000107
0137   0011101983141                                                  USD20211218                                                               000000000000000321830000680166           ITASUNCION                                                               PYASUNCION                                                    010701                                 CI 7078727                                                     N000000108
0137   0011101983144                                                  USD20211218                                                               000000000000003019220000680166           CAASUNCION                                                               PYASUNCION                                                    010701                                 CI 4792834                                                     N000000109
0137   0021101983165                                                  USD20211218CI 4811328                                                     000000000000000150000000680166           PYASUNCION                                                               CYNICOSIA                                                     010701                                                                                                N000000110
0137   0011101983171                                                  USD20211218                                                               000000000000000900000000680166           USASUNCION                                                               PYASUNCION                                                    010701                                 CI 1590480                                                     N000000111
0137   0011101983174                                                  USD20211218                                                               000000000000000200000000680166           USASUNCION                                                               PYASUNCION                                                    010701                                 CI 8710745                                                     N000000112
0137   0021101983181                                                  USD20211218CI 4830130                                                     000000000000000025000000680166           PYASUNCION                                                               MXMEXICO                                                      010701                                                                                                N000000113
0137   0011101983187                                                  USD20211218                                                               000000000000000050000000680166           USASUNCION                                                               PYASUNCION                                                    010701                                 CI 3806422                                                     N000000114
0137   0011101983190                                                  USD20211218                                                               000000000000000700000000680166           USASUNCION                                                               PYASUNCION                                                    010701                                 CI 3806422                                                     N000000115
0137   0011101983194                                                  USD20211218                                                               000000000000000100000000680166           USASUNCION                                                               PYASUNCION                                                    010701                                 CI 4626644                                                     N000000116
0137   0011101983196                                                  USD20211218                                                               000000000000000090500000680166           ARASUNCION                                                               PYASUNCION                                                    010701                                 CI 3638851                                                     N000000117
0137   0011101983202                                                  USD20211218                                                               000000000000000566400000680166           PEASUNCION                                                               PYASUNCION                                                    010701                                 CI 3870670                                                     N000000118
0137   0011101983213                                                  USD20211218                                                               000000000000000460000000680166           USASUNCION                                                               PYASUNCION                                                    010701                                 CI 5403616                                                     N000000119
0137   0011101983221                                                  USD20211218                                                               000000000000000381360000680166           ESASUNCION                                                               PYASUNCION                                                    010701                                 CI 4420823                                                     N000000120
0137   0011101983225                                                  USD20211218                                                               000000000000001000000000680166           USASUNCION                                                               PYASUNCION                                                    010701                                 CI 3782914                                                     N000000121
0137   0011101983227                                                  USD20211218                                                               000000000000000120000000680166           MXASUNCION                                                               PYASUNCION                                                    010701                                 CI 4597517                                                     N000000122
0137   0011101983229                                                  USD20211218                                                               000000000000000200000000680166           USASUNCION                                                               PYASUNCION                                                    010701                                 CI 661263                                                      N000000123
0137   0011101983240                                                  USD20211218                                                               000000000000000999000000680166           USASUNCION                                                               PYASUNCION                                                    010701                                 CI 4305352                                                     N000000124
0137   0021101983241                                                  USD20211218CI 8347229                                                     000000000000000067000000680166           PYASUNCION                                                               COCUCUTA                                                      010701                                                                                                N000000125
0137   0011101983245                                                  USD20211218                                                               000000000000000900000000680166           USASUNCION                                                               PYASUNCION                                                    010701                                 CI 3371587                                                     N000000126
0137   0011101983259                                                  USD20211218                                                               000000000000000650000000680166           USASUNCION                                                               PYASUNCION                                                    010701                                 CI 5332603                                                     N000000127
0137   0011101983260                                                  USD20211218                                                               000000000000001000000000680166           USASUNCION                                                               PYASUNCION                                                    010701                                 CI 695159                                                      N000000128
0137   0011101983271                                                  USD20211218                                                               000000000000000160000000680166           USASUNCION                                                               PYASUNCION                                                    010701                                 CI 2162969                                                     N000000129
0137   0011101983272                                                  USD20211218                                                               000000000000000900000000680166           USASUNCION                                                               PYASUNCION                                                    010701                                 CI 4545693                                                     N000000130
0137   0011101983284                                                  USD20211218                                                               000000000000000100000000680166           USASUNCION                                                               PYASUNCION                                                    010701                                 CI 1027203                                                     N000000131
0137   0011101983286                                                  USD20211218                                                               000000000000001000000000680166           USASUNCION                                                               PYASUNCION                                                    010701                                 CI 797144                                                      N000000132
0137   0011101983292                                                  USD20211218                                                               000000000000000500000000680166           BOASUNCION                                                               PYASUNCION                                                    010701                                 CI 4263917                                                     N000000133
0137   0011101983297                                                  USD20211218                                                               000000000000000492000000680166           USASUNCION                                                               PYASUNCION                                                    010701                                 CI 4264178                                                     N000000134
0137   0011101983298                                                  USD20211218                                                               000000000000000900000000680166           SVASUNCION                                                               PYASUNCION                                                    010701                                 CI 1900061                                                     N000000135
01314  0011501760077                                                  USD20211218                                                               000000000000000565000000680166           USASUNCION                                                               PYCIUDAD DEL ESTE                                             010701                                 CI 6821856                                                     N000000136
01314  0011501760087                                                  USD20211218                                                               000000000000000268180000680166           PEASUNCION                                                               PYCIUDAD DEL ESTE                                             010701                                 CI 3299197                                                     N000000137
01314  0011501760092                                                  USD20211218                                                               000000000000000100000000680166           USASUNCION                                                               PYCIUDAD DEL ESTE                                             010701                                 CI 4323456                                                     N000000138
01314  0011501760107                                                  USD20211218                                                               000000000000000470000000680166           USASUNCION                                                               PYCIUDAD DEL ESTE                                             010701                                 CI 4664181                                                     N000000139
01314  0011501760111                                                  USD20211218                                                               000000000000000140000000680166           USASUNCION                                                               PYCIUDAD DEL ESTE                                             010701                                 CI 4664181                                                     N000000140
01314  0011501760125                                                  USD20211218                                                               000000000000000250000000680166           USASUNCION                                                               PYCIUDAD DEL ESTE                                             010701                                 CRCAR34511981                                                  N000000141
01314  0021501760133                                                  USD20211218CI 4117248                                                     000000000000000080000000680166           PYCIUDAD DEL ESTE                                                        AREL DORADO                                                   010701                                                                                                N000000142
01314  0011501760145                                                  USD20211218                                                               000000000000000100000000680166           USASUNCION                                                               PYCIUDAD DEL ESTE                                             010701                                 CI 3981530                                                     N000000143
01314  0011501760146                                                  USD20211218                                                               000000000000000049990000680166           ARASUNCION                                                               PYCIUDAD DEL ESTE                                             010701                                 CI 1069396                                                     N000000144
01314  0011501760148                                                  USD20211218                                                               000000000000000049990000680166           ARASUNCION                                                               PYCIUDAD DEL ESTE                                             010701                                 CI 1069396                                                     N000000145
01314  0011501760150                                                  USD20211218                                                               000000000000000049990000680166           ARASUNCION                                                               PYCIUDAD DEL ESTE                                             010701                                 CI 1069396                                                     N000000146
01314  0011501760151                                                  USD20211218                                                               000000000000000350000000680166           USASUNCION                                                               PYCIUDAD DEL ESTE                                             010701                                 CI 3331229                                                     N000000147
01314  0011501760173                                                  USD20211218                                                               000000000000000150000000680166           USASUNCION                                                               PYCIUDAD DEL ESTE                                             010701                                 CRCBR8537638-1                                                 N000000148
01314  0011501760181                                                  USD20211218                                                               000000000000000700000000680166           USASUNCION                                                               PYCIUDAD DEL ESTE                                             010701                                 CI 8763772                                                     N000000149
01314  0011501760187                                                  USD20211218                                                               000000000000000500000000680166           USASUNCION                                                               PYCIUDAD DEL ESTE                                             010701                                 CI 7375834                                                     N000000150
01314  0011501760193                                                  USD20211218                                                               000000000000000150000000680166           USASUNCION                                                               PYCIUDAD DEL ESTE                                             010701                                 CI 7029395                                                     N000000151
0138   0011802271066                                                  USD20211218                                                               000000000000000150000000680166           USASUNCION                                                               PYLUQUE                                                       010701                                 CI 1778194                                                     N000000152
0138   0011802271092                                                  USD20211218                                                               000000000000000575790000680166           UYASUNCION                                                               PYLUQUE                                                       010701                                 CI 5724181                                                     N000000153
0138   0011802271098                                                  USD20211218                                                               000000000000000050000000680166           COASUNCION                                                               PYLUQUE                                                       010701                                 CRCCOCC1032475555                                              N000000154
0138   0011802271151                                                  USD20211218                                                               000000000000001750000000680166           USASUNCION                                                               PYLUQUE                                                       010701                                 CI 4106260                                                     N000000155
0136   0012701079098                                                  USD20211218                                                               000000000000000130000000680166           BOASUNCION                                                               PYSAN LORENZO                                                 010701                                 CI 671267                                                      N000000156
0136   0012701079102                                                  USD20211218                                                               000000000000000090000000680166           VEASUNCION                                                               PYSAN LORENZO                                                 010701                                 CRCVE29574842                                                  N000000157
0136   0012701079103                                                  USD20211218                                                               000000000000000800000000680166           CAASUNCION                                                               PYSAN LORENZO                                                 010701                                 CI 4653304                                                     N000000158
0136   0012701079110                                                  USD20211218                                                               000000000000000300000000680166           USASUNCION                                                               PYSAN LORENZO                                                 010701                                 CI 802947                                                      N000000159
0136   0012701079122                                                  USD20211218                                                               000000000000000450000000680166           USASUNCION                                                               PYSAN LORENZO                                                 010701                                 CI 806669                                                      N000000160
0136   0012701079134                                                  USD20211218                                                               000000000000000130000000680166           USASUNCION                                                               PYSAN LORENZO                                                 010701                                 CI 6864933                                                     N000000161
0136   0012701079139                                                  USD20211218                                                               000000000000000100000000680166           USASUNCION                                                               PYSAN LORENZO                                                 010701                                 CI 4477492                                                     N000000162
0136   0012701079141                                                  USD20211218                                                               000000000000000200000000680166           USASUNCION                                                               PYSAN LORENZO                                                 010701                                 CI 4477492                                                     N000000163
0136   0012701079149                                                  USD20211218                                                               000000000000000050000000680166           USASUNCION                                                               PYSAN LORENZO                                                 010701                                 CI 4252159                                                     N000000164
0136   0022701079156                                                  USD20211218CI 4613101                                                     000000000000000050000000680166           PYSAN LORENZO                                                            ARBUENOS AIRES                                                010701                                                                                                N000000165
0136   0012701079179                                                  USD20211218                                                               000000000000000200000000680166           BOASUNCION                                                               PYSAN LORENZO                                                 010701                                 CI 7564235                                                     N000000166
0136   0012701079195                                                  USD20211218                                                               000000000000000437590000680166           JPASUNCION                                                               PYSAN LORENZO                                                 010701                                 CI 523353                                                      N000000167
0136   0022701079206                                                  USD20211218CI 4548106                                                     000000000000000146000000680166           PYSAN LORENZO                                                            ARLA PLATA                                                    010701                                                                                                N000000168
01315  0012902914658                                                  USD20211218                                                               000000000000000700000000680166           UYASUNCION                                                               PYCIUDAD DEL ESTE                                             010701                                 CI 7476507                                                     N000000169
01315  0012902914957                                                  USD20211218                                                               000000000000000389840000680166           PYASUNCION                                                               PYCIUDAD DEL ESTE                                             010701                                 CRCBR9432636-2                                                 N000000170
01315  0012902914977                                                  USD20211218                                                               000000000000000043580000680166           ESASUNCION                                                               PYCIUDAD DEL ESTE                                             010701                                 CI 4198104                                                     N000000171
01315  0012902914994                                                  USD20211218                                                               000000000000000049990000680166           ARASUNCION                                                               PYCIUDAD DEL ESTE                                             010701                                 CRCAR31874403                                                  N000000172
01315  0012902915059                                                  USD20211218                                                               000000000000000579850000680166           BOASUNCION                                                               PYCIUDAD DEL ESTE                                             010701                                 CI 2222319                                                     N000000173
01321  0023301187688                                                  USD20211218CI 4038631                                                     000000000000000121000000680166           PYENCARNACION                                                            ARBUENOS AIRES                                                010701                                                                                                N000000174
01321  0013301187697                                                  USD20211218                                                               000000000000000400000000680166           USASUNCION                                                               PYENCARNACION                                                 010701                                 CI 981429                                                      N000000175
01321  0023301187712                                                  USD20211218CI 4046701                                                     000000000000000337000000680166           PYENCARNACION                                                            ARBUENOS AIRES                                                010701                                                                                                N000000176
01321  0023301187722                                                  USD20211218CI 5273933                                                     000000000000000337000000680166           PYENCARNACION                                                            ARLA PLATA                                                    010701                                                                                                N000000177
01321  0023301187724                                                  USD20211218CI 3844202                                                     000000000000000337000000680166           PYENCARNACION                                                            ARBUENOS AIRES                                                010701                                                                                                N000000178
01321  0013301187757                                                  USD20211218                                                               000000000000000400650000680166           ARASUNCION                                                               PYENCARNACION                                                 010701                                 CI 4682488                                                     N000000179
01321  0013301187790                                                  USD20211218                                                               000000000000000274650000680166           ITASUNCION                                                               PYENCARNACION                                                 010701                                 CI 3171115                                                     N000000180
01321  0023301187800                                                  USD20211218CI 8838477                                                     000000000000000160000000680166           PYENCARNACION                                                            USLEXINGTON                                                   010701                                                                                                N000000181
01321  0013301187822                                                  USD20211218                                                               000000000000000030000000680166           UYASUNCION                                                               PYENCARNACION                                                 010701                                 CI 5622714                                                     N000000182
01325  0013901076628                                                  USD20211218                                                               000000000000000600000000680166           USASUNCION                                                               PYCIUDAD DEL ESTE                                             010701                                 CI 1073807                                                     N000000183
01325  0023901076641                                                  USD20211218CI 956147                                                      000000000000000050000000680166           PYCIUDAD DEL ESTE                                                        ARBUENOS AIRES                                                010701                                                                                                N000000184
01325  0013901076659                                                  USD20211218                                                               000000000000000700000000680166           USASUNCION                                                               PYCIUDAD DEL ESTE                                             010701                                 CI 3513110                                                     N000000185
01325  0013901076661                                                  USD20211218                                                               000000000000000200000000680166           USASUNCION                                                               PYCIUDAD DEL ESTE                                             010701                                 CI 3513110                                                     N000000186
01325  0013901076691                                                  USD20211218                                                               000000000000002400000000680166           USASUNCION                                                               PYCIUDAD DEL ESTE                                             010701                                 CI 4211645                                                     N000000187
01325  0013901076704                                                  USD20211218                                                               000000000000001000000000680166           USASUNCION                                                               PYCIUDAD DEL ESTE                                             010701                                 CI 5718781                                                     N000000188
01325  0013901076705                                                  USD20211218                                                               000000000000001000000000680166           USASUNCION                                                               PYCIUDAD DEL ESTE                                             010701                                 CI 5718783                                                     N000000189
01310  0014000974114                                                  USD20211218                                                               000000000000001100000000680166           USASUNCION                                                               PYLAMBARE                                                     010701                                 CI 1235979                                                     N000000190
01310  0014000974116                                                  USD20211218                                                               000000000000000130000000680166           USASUNCION                                                               PYLAMBARE                                                     010701                                 CI 360499                                                      N000000191
01310  0014000974120                                                  USD20211218                                                               000000000000000181380000680166           CLASUNCION                                                               PYLAMBARE                                                     010701                                 CI 1196349                                                     N000000192
01310  0014000974121                                                  USD20211218                                                               000000000000000045000000680166           USASUNCION                                                               PYLAMBARE                                                     010701                                 CI 1196349                                                     N000000193
01310  0014000974128                                                  USD20211218                                                               000000000000000500000000680166           USASUNCION                                                               PYLAMBARE                                                     010701                                 CI 364019                                                      N000000194
01310  0014000974143                                                  USD20211218                                                               000000000000002000000000680166           USASUNCION                                                               PYLAMBARE                                                     010701                                 CI 5294801                                                     N000000195
01310  0014000974144                                                  USD20211218                                                               000000000000000400000000680166           USASUNCION                                                               PYLAMBARE                                                     010701                                 CI 7712375                                                     N000000196
01310  0014000974151                                                  USD20211218                                                               000000000000005000000000680166           USASUNCION                                                               PYLAMBARE                                                     010701                                 CI 744354                                                      N000000197
01310  0014000974156                                                  USD20211218                                                               000000000000005000000000680166           USASUNCION                                                               PYLAMBARE                                                     010701                                 CI 809260                                                      N000000198
01310  0014000974159                                                  USD20211218                                                               000000000000000400000000680166           USASUNCION                                                               PYLAMBARE                                                     010701                                 CI 618702                                                      N000000199
01310  0014000974160                                                  USD20211218                                                               000000000000000034990000680166           ARASUNCION                                                               PYLAMBARE                                                     010701                                 CI 2152238                                                     N000000200
01310  0014000974167                                                  USD20211218                                                               000000000000000240000000680166           USASUNCION                                                               PYLAMBARE                                                     010701                                 CI 1199085                                                     N000000201
01310  0014000974170                                                  USD20211218                                                               000000000000000160000000680166           USASUNCION                                                               PYLAMBARE                                                     010701                                 CI 1199085                                                     N000000202
01310  0014000974184                                                  USD20211218                                                               000000000000000149960000680166           ARASUNCION                                                               PYLAMBARE                                                     010701                                 CI 1466370                                                     N000000203
01310  0014000974190                                                  USD20211218                                                               000000000000000070000000680166           USASUNCION                                                               PYLAMBARE                                                     010701                                 CI 4843328                                                     N000000204
01310  0014000974225                                                  USD20211218                                                               000000000000000060000000680166           USASUNCION                                                               PYLAMBARE                                                     010701                                 CI 652782                                                      N000000205
01310  0014000974231                                                  USD20211218                                                               000000000000000100000000680166           USASUNCION                                                               PYLAMBARE                                                     010701                                 CI 686962                                                      N000000206
01310  0014000974232                                                  USD20211218                                                               000000000000000200000000680166           USASUNCION                                                               PYLAMBARE                                                     010701                                 CI 686962                                                      N000000207
01310  0014000974233                                                  USD20211218                                                               000000000000000631140000680166           CHASUNCION                                                               PYLAMBARE                                                     010701                                 CI 670820                                                      N000000208
01310  0014000974237                                                  USD20211218                                                               000000000000000200000000680166           UYASUNCION                                                               PYLAMBARE                                                     010701                                 CI 3984778                                                     N000000209
01310  0014000974248                                                  USD20211218                                                               000000000000000499870000680166           ARASUNCION                                                               PYLAMBARE                                                     010701                                 CI 3218608                                                     N000000210
01310  0014000974265                                                  USD20211218                                                               000000000000000999000000680166           USASUNCION                                                               PYLAMBARE                                                     010701                                 CI 5269768                                                     N000000211
01329  0014500990804                                                  USD20211218                                                               000000000000000050000000680166           USASUNCION                                                               PYPEDRO JUAN CABALLERO                                        010701                                 CI 6221269                                                     N000000212
01329  0014500990837                                                  USD20211218                                                               000000000000000117820000680166           ARASUNCION                                                               PYPEDRO JUAN CABALLERO                                        010701                                 CI 5736539                                                     N000000213
01329  0014500990861                                                  USD20211218                                                               000000000000000357000000680166           PYASUNCION                                                               PYPEDRO JUAN CABALLERO                                        010701                                 CI 4300943                                                     N000000214
01329  0014500990881                                                  USD20211218                                                               000000000000000375660000680166           ESASUNCION                                                               PYPEDRO JUAN CABALLERO                                        010701                                 CI 4123021                                                     N000000215
01329  0014500990886                                                  USD20211218                                                               000000000000000130000000680166           PEASUNCION                                                               PYPEDRO JUAN CABALLERO                                        010701                                 CI 8258134                                                     N000000216
01329  0014500990900                                                  USD20211218                                                               000000000000000180680000680166           ARASUNCION                                                               PYPEDRO JUAN CABALLERO                                        010701                                 CI 3393675                                                     N000000217
01329  0014500990905                                                  USD20211218                                                               000000000000000272290000680166           ESASUNCION                                                               PYPEDRO JUAN CABALLERO                                        010701                                 CI 1691992                                                     N000000218
01329  0014500990911                                                  USD20211218                                                               000000000000000084400000680166           JPASUNCION                                                               PYPEDRO JUAN CABALLERO                                        010701                                 CI 2231280                                                     N000000219
01329  0014500990916                                                  USD20211218                                                               000000000000000152230000680166           ESASUNCION                                                               PYPEDRO JUAN CABALLERO                                        010701                                 CRCBR224705                                                    N000000220
01329  0014500990927                                                  USD20211218                                                               000000000000000099970000680166           ARASUNCION                                                               PYPEDRO JUAN CABALLERO                                        010701                                 CI 5922103                                                     N000000221
01329  0014500990951                                                  USD20211218                                                               000000000000000489490000680166           JPASUNCION                                                               PYPEDRO JUAN CABALLERO                                        010701                                 CI 2019815                                                     N000000222
01329  0014500990964                                                  USD20211218                                                               000000000000000100000000680166           MXASUNCION                                                               PYPEDRO JUAN CABALLERO                                        010701                                 CRCBR315137                                                    N000000223
01329  0014500991072                                                  USD20211218                                                               000000000000000099970000680166           ARASUNCION                                                               PYPEDRO JUAN CABALLERO                                        010701                                 CRCBR1938483                                                   N000000224
01329  0014500991082                                                  USD20211218                                                               000000000000000024990000680166           ARASUNCION                                                               PYPEDRO JUAN CABALLERO                                        010701                                 CRCBR1889857                                                   N000000225
01329  0014500991105                                                  USD20211218                                                               000000000000000100400000680166           ARASUNCION                                                               PYPEDRO JUAN CABALLERO                                        010701                                 CI 3031393                                                     N000000226
01329  0014500991109                                                  USD20211218                                                               000000000000000045010000680166           GBASUNCION                                                               PYPEDRO JUAN CABALLERO                                        010701                                 CI 3803917                                                     N000000227
01329  0014500991128                                                  USD20211218                                                               000000000000000049990000680166           ARASUNCION                                                               PYPEDRO JUAN CABALLERO                                        010701                                 CI 4751868                                                     N000000228
01329  0024500991138                                                  USD20211218CI 4940492                                                     000000000000000075000000680166           PYPEDRO JUAN CABALLERO                                                   ARBUENOS AIRES                                                010701                                                                                                N000000229
01329  0014500991185                                                  USD20211218                                                               000000000000000024990000680166           ARASUNCION                                                               PYPEDRO JUAN CABALLERO                                        010701                                 CI 7737209                                                     N000000230
