TRANSFERS 202112023009000000307
0131   002102130622                                                   USD20211202CI 1250491                                                     000000000000000100000000680534            PYASUNCION                                                                RU                                                            010701                                                                                                N000000001
0131   001102130721                                                   USD20211202                                                               000000000000000058560000680534            ES                                                                        PYASUNCION                                                    010701                                 CI 1122067                                                     N000000002
0131   002102130733                                                   USD20211202CI 2886567                                                     000000000000000018680000680534            PYASUNCION                                                                ARBUENOS AIRES                                                010701                                                                                                N000000003
0131   001102130735                                                   USD20211202                                                               000000000000002000000000680534            US                                                                        PYASUNCION                                                    010701                                 CI 3806288                                                     N000000004
0131   002102130741                                                   USD20211202CI 3711362                                                     000000000000000252460000680534            PYASUNCION                                                                ESBARCELONA                                                   010701                                                                                                N000000005
0131   001102130802                                                   USD20211202                                                               000000000000000390000000680534            US                                                                        PYASUNCION                                                    010701                                 CI 1291764                                                     N000000006
0131   001102130869                                                   USD20211202                                                               000000000000000120000000680534            US                                                                        PYASUNCION                                                    010701                                 CI 1535415                                                     N000000007
0131   002102130953                                                   USD20211202CI 1425949                                                     000000000000000250000000680534            PYASUNCION                                                                UYMONTEVIDEO                                                  010701                                                                                                N000000008
01322  001303713943                                                   USD20211202                                                               000000000000000107220000680534            IT                                                                        PYPEDRO JUAN CABALLERO                                        010701                                 CI 941714                                                      N000000009
01322  002303714026                                                   USD20211202CI 5126923                                                     000000000000000407930000680534            PYPEDRO JUAN CABALLERO                                                    ESBURGOS                                                      010701                                                                                                N000000010
01322  002303714114                                                   USD20211202CI 5346516                                                     000000000000000050000000680534            PYPEDRO JUAN CABALLERO                                                    ECQUITO                                                       010701                                                                                                N000000011
01322  002303714130                                                   USD20211202CI 7087394                                                     000000000000000196000000680534            PYPEDRO JUAN CABALLERO                                                    ARBUENOS AIRES                                                010701                                                                                                N000000012
01322  001303714153                                                   USD20211202                                                               000000000000000385870000680534            BR                                                                        PYPEDRO JUAN CABALLERO                                        010701                                 CRCBR5847405                                                   N000000013
01322  002303714188                                                   USD20211202CI 832094                                                      000000000000000486100000680534            PYPEDRO JUAN CABALLERO                                                    JPGUNMA                                                       010701                                                                                                N000000014
01322  002303714453                                                   USD20211202CI 2954975                                                     000000000000000257910000680534            PYPEDRO JUAN CABALLERO                                                    ESBARCELONA                                                   010701                                                                                                N000000015
01322  001303714482                                                   USD20211202                                                               000000000000000074580000680534            ES                                                                        PYPEDRO JUAN CABALLERO                                        010701                                 CI 3440088                                                     N000000016
01322  002303714505                                                   USD20211202CI 7056322                                                     000000000000000086580000680534            PYPEDRO JUAN CABALLERO                                                    COBOGOTA                                                      010701                                                                                                N000000017
01322  002303714523                                                   USD20211202CI 4587811                                                     000000000000000230880000680534            PYPEDRO JUAN CABALLERO                                                    ARBUENOS AIRES                                                010701                                                                                                N000000018
01322  001303714573                                                   USD20211202                                                               000000000000000980000000680534            US                                                                        PYPEDRO JUAN CABALLERO                                        010701                                 CI 4381088                                                     N000000019
01322  001303714598                                                   USD20211202                                                               000000000000000019010000680534            AR                                                                        PYPEDRO JUAN CABALLERO                                        010701                                 CI 3423267                                                     N000000020
01322  001303714634                                                   USD20211202                                                               000000000000000114370000680534            AR                                                                        PYPEDRO JUAN CABALLERO                                        010701                                 CI 7097702                                                     N000000021
01322  001303714677                                                   USD20211202                                                               000000000000000100430000680534            BO                                                                        PYPEDRO JUAN CABALLERO                                        010701                                 CI 2381623                                                     N000000022
01322  001303714685                                                   USD20211202                                                               000000000000000458520000680534            CL                                                                        PYPEDRO JUAN CABALLERO                                        010701                                 CI 3296532                                                     N000000023
01322  001303714725                                                   USD20211202                                                               000000000000000219020000680534            IT                                                                        PYPEDRO JUAN CABALLERO                                        010701                                 CI 5514171                                                     N000000024
01322  001303714746                                                   USD20211202                                                               000000000000000954700000680534            BO                                                                        PYPEDRO JUAN CABALLERO                                        010701                                 CI 3935609                                                     N000000025
01322  001303714760                                                   USD20211202                                                               000000000000000008750000680534            ES                                                                        PYPEDRO JUAN CABALLERO                                        010701                                 CI 3561358                                                     N000000026
01322  001303714765                                                   USD20211202                                                               000000000000000050000000680534            US                                                                        PYPEDRO JUAN CABALLERO                                        010701                                 CRCBR1303750                                                   N000000027
01322  001303714785                                                   USD20211202                                                               000000000000000065770000680534            ES                                                                        PYPEDRO JUAN CABALLERO                                        010701                                 CI 3633730                                                     N000000028
01322  002303714808                                                   USD20211202CI 3935609                                                     000000000000000700000000680534            PYPEDRO JUAN CABALLERO                                                    BOSANTA CRUZ DE LA SIERRA                                     010701                                                                                                N000000029
01312  001403084898                                                   USD20211202                                                               000000000000000051530000680534            CL                                                                        PYCIUDAD DEL ESTE                                             010701                                 CI 5254484                                                     N000000030
01312  001403084908                                                   USD20211202                                                               000000000000000800000000680534            KR                                                                        PYCIUDAD DEL ESTE                                             010701                                 CI 8669024                                                     N000000031
01312  001403084925                                                   USD20211202                                                               000000000000000302440000680534            ES                                                                        PYCIUDAD DEL ESTE                                             010701                                 CRCBR1714002-7                                                 N000000032
01312  001403084933                                                   USD20211202                                                               000000000000000392000000680534            US                                                                        PYCIUDAD DEL ESTE                                             010701                                 CI 2857859                                                     N000000033
01312  001403084965                                                   USD20211202                                                               000000000000000877590000680534            ES                                                                        PYCIUDAD DEL ESTE                                             010701                                 CI 3909858                                                     N000000034
01312  001403084967                                                   USD20211202                                                               000000000000000053790000680534            ES                                                                        PYCIUDAD DEL ESTE                                             010701                                 CI 2577364                                                     N000000035
01312  001403084978                                                   USD20211202                                                               000000000000000168920000680534            AR                                                                        PYCIUDAD DEL ESTE                                             010701                                 CI 954379                                                      N000000036
01312  001403084981                                                   USD20211202                                                               000000000000000109540000680534            ES                                                                        PYCIUDAD DEL ESTE                                             010701                                 CI 6506409                                                     N000000037
01312  001403084987                                                   USD20211202                                                               000000000000001272000000680534            CN                                                                        PYCIUDAD DEL ESTE                                             010701                                 CI 678012                                                      N000000038
01312  001403085027                                                   USD20211202                                                               000000000000000150000000680534            US                                                                        PYCIUDAD DEL ESTE                                             010701                                 CRCBR15367588-0                                                N000000039
01312  001403085060                                                   USD20211202                                                               000000000000000150000000680534            BO                                                                        PYCIUDAD DEL ESTE                                             010701                                 CRCBR13029137-6                                                N000000040
01312  001403085076                                                   USD20211202                                                               000000000000000772900000680534            BR                                                                        PYCIUDAD DEL ESTE                                             010701                                 CRCBR6109752805                                                N000000041
01312  001403085139                                                   USD20211202                                                               000000000000000175920000680534            AR                                                                        PYCIUDAD DEL ESTE                                             010701                                 CRCBR9533697-3                                                 N000000042
01312  001403085155                                                   USD20211202                                                               000000000000000200000000680534            US                                                                        PYCIUDAD DEL ESTE                                             010701                                 CI 5148153                                                     N000000043
01312  001403085186                                                   USD20211202                                                               000000000000000066080000680534            BR                                                                        PYCIUDAD DEL ESTE                                             010701                                 CRCBR1255746                                                   N000000044
01312  001403085187                                                   USD20211202                                                               000000000000000557520000680534            UY                                                                        PYCIUDAD DEL ESTE                                             010701                                 CI 3784150                                                     N000000045
01312  001403085199                                                   USD20211202                                                               000000000000000061600000680534            AR                                                                        PYCIUDAD DEL ESTE                                             010701                                 CI 4572899                                                     N000000046
01312  001403085231                                                   USD20211202                                                               000000000000000100000000680534            UY                                                                        PYCIUDAD DEL ESTE                                             010701                                 CI 1389900                                                     N000000047
01312  001403085236                                                   USD20211202                                                               000000000000000150000000680534            US                                                                        PYCIUDAD DEL ESTE                                             010701                                 CI 4040676                                                     N000000048
01312  001403085284                                                   USD20211202                                                               000000000000001000000000680534            US                                                                        PYCIUDAD DEL ESTE                                             010701                                 CRCBR15445677-5                                                N000000049
01312  001403085293                                                   USD20211202                                                               000000000000000102880000680534            ES                                                                        PYCIUDAD DEL ESTE                                             010701                                 CI 5763437                                                     N000000050
01312  001403085372                                                   USD20211202                                                               000000000000000248690000680534            BR                                                                        PYCIUDAD DEL ESTE                                             010701                                 CI 861843                                                      N000000051
01312  001403085380                                                   USD20211202                                                               000000000000000109710000680534            ES                                                                        PYCIUDAD DEL ESTE                                             010701                                 CI 2977811                                                     N000000052
01312  001403085439                                                   USD20211202                                                               000000000000000104050000680534            IT                                                                        PYCIUDAD DEL ESTE                                             010701                                 CI 4193697                                                     N000000053
01318  001700961907                                                   USD20211202                                                               000000000000000087940000680534            AR                                                                        PYSANTA RITA                                                  010701                                 CI 1758967                                                     N000000054
01318  001700961927                                                   USD20211202                                                               000000000000000230000000680534            US                                                                        PYSANTA RITA                                                  010701                                 CI 744760                                                      N000000055
01318  001700961966                                                   USD20211202                                                               000000000000000380560000680534            AR                                                                        PYSANTA RITA                                                  010701                                 CI 3542163                                                     N000000056
01318  001700961997                                                   USD20211202                                                               000000000000000302000000680534            CL                                                                        PYSANTA RITA                                                  010701                                 CI 1763249                                                     N000000057
01318  001700962011                                                   USD20211202                                                               000000000000000900000000680534            US                                                                        PYSANTA RITA                                                  010701                                 CI 6264004                                                     N000000058
01318  001700962028                                                   USD20211202                                                               000000000000000050000000680534            US                                                                        PYSANTA RITA                                                  010701                                 CI 3937837                                                     N000000059
01318  001700962045                                                   USD20211202                                                               000000000000000145930000680534            ES                                                                        PYSANTA RITA                                                  010701                                 CI 4691256                                                     N000000060
0132   001802002252                                                   USD20211202                                                               000000000000000400000000680534            US                                                                        PYASUNCION                                                    010701                                 CI 2967126                                                     N000000061
0132   002802002255                                                   USD20211202CI 1421802                                                     000000000000001500000000680534            PYASUNCION                                                                CLSANTIAGO                                                    010701                                                                                                N000000062
0132   001802002265                                                   USD20211202                                                               000000000000000250000000680534            US                                                                        PYASUNCION                                                    010701                                 CI 4916702                                                     N000000063
0132   001802002273                                                   USD20211202                                                               000000000000001200000000680534            US                                                                        PYASUNCION                                                    010701                                 CI 625573                                                      N000000064
0132   001802002275                                                   USD20211202                                                               000000000000003200000000680534            CN                                                                        PYASUNCION                                                    010701                                 CI 5275885                                                     N000000065
0132   001802002326                                                   USD20211202                                                               000000000000000625000000680534            US                                                                        PYASUNCION                                                    010701                                 CI 3774403                                                     N000000066
0132   001802002332                                                   USD20211202                                                               000000000000002500000000680534            US                                                                        PYASUNCION                                                    010701                                 CI 1015704                                                     N000000067
0132   001802002334                                                   USD20211202                                                               000000000000000350000000680534            US                                                                        PYASUNCION                                                    010701                                 CI 590718                                                      N000000068
0132   001802002342                                                   USD20211202                                                               000000000000000390000000680534            US                                                                        PYASUNCION                                                    010701                                 CI 4629177                                                     N000000069
0132   002802002359                                                   USD20211202CRCVE25527162                                                  000000000000000476800000680534            PYASUNCION                                                                COBOGOTA                                                      010701                                                                                                N000000070
0132   002802002363                                                   USD20211202CI 3021539                                                     000000000000000020000000680534            PYASUNCION                                                                ARSANTA FE                                                    010701                                                                                                N000000071
0132   001802002368                                                   USD20211202                                                               000000000000000350000000680534            BO                                                                        PYASUNCION                                                    010701                                 CI 3209126                                                     N000000072
0132   001802002371                                                   USD20211202                                                               000000000000000466630000680534            AR                                                                        PYASUNCION                                                    010701                                 CI 3432025                                                     N000000073
0132   001802002378                                                   USD20211202                                                               000000000000000125000000680534            US                                                                        PYASUNCION                                                    010701                                 CI 2335127                                                     N000000074
0132   001802002379                                                   USD20211202                                                               000000000000000288000000680534            US                                                                        PYASUNCION                                                    010701                                 CI 1535415                                                     N000000075
0132   001802002381                                                   USD20211202                                                               000000000000000150000000680534            US                                                                        PYASUNCION                                                    010701                                 CI 1714290                                                     N000000076
0132   002802002397                                                   USD20211202CI 784464                                                      000000000000001426000000680534            PYASUNCION                                                                ARBUENOS AIRES                                                010701                                                                                                N000000077
0132   001802002414                                                   USD20211202                                                               000000000000003000000000680534            US                                                                        PYASUNCION                                                    010701                                 CI 2071988                                                     N000000078
0132   001802002433                                                   USD20211202                                                               000000000000000600000000680534            US                                                                        PYASUNCION                                                    010701                                 CI 2111044                                                     N000000079
0132   001802002453                                                   USD20211202                                                               000000000000000170000000680534            US                                                                        PYASUNCION                                                    010701                                 CI 1475005                                                     N000000080
0132   001802002458                                                   USD20211202                                                               000000000000000200000000680534            US                                                                        PYASUNCION                                                    010701                                 CI 3493532                                                     N000000081
0132   001802002462                                                   USD20211202                                                               000000000000000500000000680534            US                                                                        PYASUNCION                                                    010701                                 CI 842918                                                      N000000082
0132   002802002466                                                   USD20211202CI 590283                                                      000000000000000303400000680534            PYASUNCION                                                                ARCORDOBA                                                     010701                                                                                                N000000083
0132   001802002468                                                   USD20211202                                                               000000000000000147690000680534            KR                                                                        PYASUNCION                                                    010701                                 CI 4172107                                                     N000000084
0132   002802002475                                                   USD20211202CI 3233919                                                     000000000000000300000000680534            PYASUNCION                                                                BOSANTA CRUZ DE LA SIERRA                                     010701                                                                                                N000000085
0132   001802002481                                                   USD20211202                                                               000000000000000554230000680534            IT                                                                        PYASUNCION                                                    010701                                 CI 7078727                                                     N000000086
0132   001802002490                                                   USD20211202                                                               000000000000000090000000680534            PE                                                                        PYASUNCION                                                    010701                                 CI 4731403                                                     N000000087
0132   001802002493                                                   USD20211202                                                               000000000000000450000000680534            US                                                                        PYASUNCION                                                    010701                                 CI 2377680                                                     N000000088
0132   002802002506                                                   USD20211202CI 2468960                                                     000000000000000102500000680534            PYASUNCION                                                                BR                                                            010701                                                                                                N000000089
0132   001802002525                                                   USD20211202                                                               000000000000000400000000680534            US                                                                        PYASUNCION                                                    010701                                 CI 1030357                                                     N000000090
0132   001802002527                                                   USD20211202                                                               000000000000000682000000680534            US                                                                        PYASUNCION                                                    010701                                 CI 8621832                                                     N000000091
0132   001802002536                                                   USD20211202                                                               000000000000001766110000680534            MX                                                                        PYASUNCION                                                    010701                                 CI 6218152                                                     N000000092
0132   001802002553                                                   USD20211202                                                               000000000000003000000000680534            US                                                                        PYASUNCION                                                    010701                                 CI 1073040                                                     N000000093
0132   002802002571                                                   USD20211202CI 4341370                                                     000000000000000134900000680534            PYASUNCION                                                                BRFLORIANOPOLIS                                               010701                                                                                                N000000094
0132   002802002580                                                   USD20211202CI 1065606                                                     000000000000000234200000680534            PYASUNCION                                                                ARBUENOS AIRES                                                010701                                                                                                N000000095
0132   001802002582                                                   USD20211202                                                               000000000000001000820000680534            CL                                                                        PYASUNCION                                                    010701                                 CI 1078775                                                     N000000096
0132   001802002609                                                   USD20211202                                                               000000000000000350000000680534            US                                                                        PYASUNCION                                                    010701                                 CI 1938579                                                     N000000097
0132   001802002642                                                   USD20211202                                                               000000000000000400000000680534            US                                                                        PYASUNCION                                                    010701                                 CI 1589218                                                     N000000098
01320  002902621900                                                   USD20211202CI 3434035                                                     000000000000000038000000680534            PYENCARNACION                                                             ARBUENOS AIRES                                                010701                                                                                                N000000099
01320  001902621909                                                   USD20211202                                                               000000000000001500000000680534            US                                                                        PYENCARNACION                                                 010701                                 CI 3372372                                                     N000000100
01320  001902621911                                                   USD20211202                                                               000000000000000088000000680534            AR                                                                        PYENCARNACION                                                 010701                                 CI 2141263                                                     N000000101
01320  001902621932                                                   USD20211202                                                               000000000000000900000000680534            US                                                                        PYENCARNACION                                                 010701                                 CI 977947                                                      N000000102
01320  001902621941                                                   USD20211202                                                               000000000000002330000000680534            US                                                                        PYENCARNACION                                                 010701                                 CI 2383485                                                     N000000103
01320  001902621945                                                   USD20211202                                                               000000000000000036450000680534            ES                                                                        PYENCARNACION                                                 010701                                 CI 3453924                                                     N000000104
01320  001902621958                                                   USD20211202                                                               000000000000000159520000680534            ES                                                                        PYENCARNACION                                                 010701                                 CI 4313407                                                     N000000105
01320  001902621975                                                   USD20211202                                                               000000000000000079330000680534            AR                                                                        PYENCARNACION                                                 010701                                 CI 5488557                                                     N000000106
01320  001902622012                                                   USD20211202                                                               000000000000000023330000680534            AR                                                                        PYENCARNACION                                                 010701                                 CI 5873348                                                     N000000107
01320  001902622024                                                   USD20211202                                                               000000000000000111990000680534            AR                                                                        PYENCARNACION                                                 010701                                 CI 3285706                                                     N000000108
01320  002902622069                                                   USD20211202CI 4277117                                                     000000000000000182000000680534            PYENCARNACION                                                             BRBELEM                                                       010701                                                                                                N000000109
01320  001902622082                                                   USD20211202                                                               000000000000000046660000680534            AR                                                                        PYENCARNACION                                                 010701                                 CI 5553281                                                     N000000110
01320  002902622102                                                   USD20211202CI 8487516                                                     000000000000000420000000680534            PYENCARNACION                                                             IDANDIR                                                       010701                                                                                                N000000111
01320  001902622129                                                   USD20211202                                                               000000000000004152780000680534            FR                                                                        PYENCARNACION                                                 010701                                 CI 8782348                                                     N000000112
01320  001902622203                                                   USD20211202                                                               000000000000001071000000680534            CY                                                                        PYENCARNACION                                                 010701                                 CI 3957718                                                     N000000113
0137   0011101976962                                                  USD20211202                                                               000000000000000070000000680534            US                                                                        PYASUNCION                                                    010701                                 CI 5593934                                                     N000000114
0137   0011101976987                                                  USD20211202                                                               000000000000000400000000680534            US                                                                        PYASUNCION                                                    010701                                 CI 313982                                                      N000000115
0137   0011101976988                                                  USD20211202                                                               000000000000000329780000680534            JP                                                                        PYASUNCION                                                    010701                                 CI 977858                                                      N000000116
0137   0011101976989                                                  USD20211202                                                               000000000000000315380000680534            IT                                                                        PYASUNCION                                                    010701                                 CI 2420872                                                     N000000117
0137   0011101977007                                                  USD20211202                                                               000000000000000500000000680534            US                                                                        PYASUNCION                                                    010701                                 CI 838324                                                      N000000118
0137   0011101977013                                                  USD20211202                                                               000000000000000290200000680534            US                                                                        PYASUNCION                                                    010701                                 CI 2879048                                                     N000000119
0137   0011101977016                                                  USD20211202                                                               000000000000000100000000680534            US                                                                        PYASUNCION                                                    010701                                 CI 5085427                                                     N000000120
0137   0011101977020                                                  USD20211202                                                               000000000000000500000000680534            PE                                                                        PYASUNCION                                                    010701                                 CI 1540485                                                     N000000121
0137   0011101977025                                                  USD20211202                                                               000000000000000256000000680534            US                                                                        PYASUNCION                                                    010701                                 CI 248895                                                      N000000122
0137   0011101977041                                                  USD20211202                                                               000000000000000165340000680534            PE                                                                        PYASUNCION                                                    010701                                 CI 2124384                                                     N000000123
0137   0011101977046                                                  USD20211202                                                               000000000000000100000000680534            US                                                                        PYASUNCION                                                    010701                                 CI 3719307                                                     N000000124
0137   0011101977052                                                  USD20211202                                                               000000000000000520000000680534            US                                                                        PYASUNCION                                                    010701                                 CI 403702                                                      N000000125
0137   0011101977058                                                  USD20211202                                                               000000000000000110850000680534            IT                                                                        PYASUNCION                                                    010701                                 CI 6151213                                                     N000000126
0137   0011101977074                                                  USD20211202                                                               000000000000000649000000680534            US                                                                        PYASUNCION                                                    010701                                 CI 329725                                                      N000000127
0137   0021101977076                                                  USD20211202CI 4184607                                                     000000000000000074170000680534            PYASUNCION                                                                INMAHUVA                                                      010701                                                                                                N000000128
0137   0011101977081                                                  USD20211202                                                               000000000000000270000000680534            US                                                                        PYASUNCION                                                    010701                                 CI 6336810                                                     N000000129
0137   0011101977095                                                  USD20211202                                                               000000000000000800000000680534            US                                                                        PYASUNCION                                                    010701                                 CI 873405                                                      N000000130
0137   0011101977101                                                  USD20211202                                                               000000000000000100000000680534            US                                                                        PYASUNCION                                                    010701                                 CI 696423                                                      N000000131
0137   0011101977104                                                  USD20211202                                                               000000000000000100000000680534            US                                                                        PYASUNCION                                                    010701                                 CI 696423                                                      N000000132
0137   0011101977106                                                  USD20211202                                                               000000000000000400000000680534            US                                                                        PYASUNCION                                                    010701                                 CI 696423                                                      N000000133
0137   0021101977138                                                  USD20211202CI 4225505                                                     000000000000000650000000680534            PYASUNCION                                                                US                                                            010701                                                                                                N000000134
0137   0021101977155                                                  USD20211202CI 1343870                                                     000000000000000200000000680534            PYASUNCION                                                                PELIMA                                                        010701                                                                                                N000000135
0137   0021101977166                                                  USD20211202CI 3640294                                                     000000000000000025360000680534            PYASUNCION                                                                ESMADRID                                                      010701                                                                                                N000000136
0137   0021101977180                                                  USD20211202CI 1343870                                                     000000000000000600000000680534            PYASUNCION                                                                US                                                            010701                                                                                                N000000137
0137   0021101977199                                                  USD20211202CI 633106                                                      000000000000000070000000680534            PYASUNCION                                                                ARPARANA (ENTRE RIOS)                                         010701                                                                                                N000000138
0137   0011101977208                                                  USD20211202                                                               000000000000000503400000680534            BR                                                                        PYASUNCION                                                    010701                                 CI 1200646                                                     N000000139
0137   0021101977212                                                  USD20211202CI 1200646                                                     000000000000000612000000680534            PYASUNCION                                                                BRPORTO ALEGRE                                                010701                                                                                                N000000140
0137   0011101977214                                                  USD20211202                                                               000000000000000200000000680534            US                                                                        PYASUNCION                                                    010701                                 CI 8848105                                                     N000000141
0137   0011101977222                                                  USD20211202                                                               000000000000000800000000680534            US                                                                        PYASUNCION                                                    010701                                 CI 7718505                                                     N000000142
0137   0021101977234                                                  USD20211202CI 3515703                                                     000000000000000105000000680534            PYASUNCION                                                                ARBUENOS AIRES                                                010701                                                                                                N000000143
0137   0021101977253                                                  USD20211202CRCVE13381915                                                  000000000000000202000000680534            PYASUNCION                                                                VEVALENCIA                                                    010701                                                                                                N000000144
0137   0011101977264                                                  USD20211202                                                               000000000000000500000000680534            US                                                                        PYASUNCION                                                    010701                                 CI 3526635                                                     N000000145
0137   0011101977271                                                  USD20211202                                                               000000000000000300000000680534            US                                                                        PYASUNCION                                                    010701                                 CI 4359349                                                     N000000146
0137   0011101977276                                                  USD20211202                                                               000000000000000070730000680534            AR                                                                        PYASUNCION                                                    010701                                 CI 1875540                                                     N000000147
0137   0011101977296                                                  USD20211202                                                               000000000000000500000000680534            US                                                                        PYASUNCION                                                    010701                                 CI 329155                                                      N000000148
0137   0011101977313                                                  USD20211202                                                               000000000000000850000000680534            US                                                                        PYASUNCION                                                    010701                                 CI 5111718                                                     N000000149
0137   0011101977338                                                  USD20211202                                                               000000000000000230000000680534            US                                                                        PYASUNCION                                                    010701                                 CI 2431345                                                     N000000150
0137   0021101977343                                                  USD20211202CI 3551580                                                     000000000000000159890000680534            PYASUNCION                                                                ARROSARIO                                                     010701                                                                                                N000000151
0137   0011101977349                                                  USD20211202                                                               000000000000000583110000680534            ES                                                                        PYASUNCION                                                    010701                                 CI 2235620                                                     N000000152
01314  0011501756841                                                  USD20211202                                                               000000000000000224190000680534            ES                                                                        PYCIUDAD DEL ESTE                                             010701                                 CI 6325818                                                     N000000153
01314  0011501756855                                                  USD20211202                                                               000000000000000300000000680534            US                                                                        PYCIUDAD DEL ESTE                                             010701                                 CI 1567155                                                     N000000154
01314  0011501756865                                                  USD20211202                                                               000000000000000200000000680534            US                                                                        PYCIUDAD DEL ESTE                                             010701                                 CI 5210244                                                     N000000155
01314  0011501756872                                                  USD20211202                                                               000000000000000093330000680534            AR                                                                        PYCIUDAD DEL ESTE                                             010701                                 CI 826529                                                      N000000156
01314  0021501756893                                                  USD20211202CI 826529                                                      000000000000000024000000680534            PYCIUDAD DEL ESTE                                                         ARBUENOS AIRES                                                010701                                                                                                N000000157
01314  0011501756895                                                  USD20211202                                                               000000000000000100000000680534            US                                                                        PYCIUDAD DEL ESTE                                             010701                                 CI 640614                                                      N000000158
01314  0011501756904                                                  USD20211202                                                               000000000000001840430000680534            ES                                                                        PYCIUDAD DEL ESTE                                             010701                                 CI 5858771                                                     N000000159
01314  0011501756907                                                  USD20211202                                                               000000000000000228390000680534            CA                                                                        PYCIUDAD DEL ESTE                                             010701                                 CI 4117156                                                     N000000160
01314  0011501756911                                                  USD20211202                                                               000000000000000320900000680534            ES                                                                        PYCIUDAD DEL ESTE                                             010701                                 CI 3402725                                                     N000000161
01314  0011501756922                                                  USD20211202                                                               000000000000000400000000680534            US                                                                        PYCIUDAD DEL ESTE                                             010701                                 CI 600885                                                      N000000162
01314  0011501756936                                                  USD20211202                                                               000000000000000700000000680534            US                                                                        PYCIUDAD DEL ESTE                                             010701                                 CI 4998961                                                     N000000163
01314  0021501756944                                                  USD20211202CRCAR23177772                                                  000000000000000047000000680534            PYCIUDAD DEL ESTE                                                         ARBUENOS AIRES                                                010701                                                                                                N000000164
01314  0011501756958                                                  USD20211202                                                               000000000000000491000000680534            ZA                                                                        PYCIUDAD DEL ESTE                                             010701                                 CI 3911955                                                     N000000165
01314  0011501756981                                                  USD20211202                                                               000000000000000428480000680534            BR                                                                        PYCIUDAD DEL ESTE                                             010701                                 CRCBR13576092-56                                               N000000166
01314  0011501756985                                                  USD20211202                                                               000000000000000458040000680534            CL                                                                        PYCIUDAD DEL ESTE                                             010701                                 CI 1022662                                                     N000000167
01314  0011501757004                                                  USD20211202                                                               000000000000000104550000680534            ES                                                                        PYCIUDAD DEL ESTE                                             010701                                 CI 5489944                                                     N000000168
01314  0011501757009                                                  USD20211202                                                               000000000000000016330000680534            AR                                                                        PYCIUDAD DEL ESTE                                             010701                                 CI 4880907                                                     N000000169
0138   0021802265825                                                  USD20211202CI 5991285                                                     000000000000000038000000680534            PYLUQUE                                                                   ARBUENOS AIRES                                                010701                                                                                                N000000170
0138   0021802265984                                                  USD20211202CI 1790331                                                     000000000000000125000000680534            PYLUQUE                                                                   COBOGOTA                                                      010701                                                                                                N000000171
0136   0012701075423                                                  USD20211202                                                               000000000000000100000000680534            US                                                                        PYSAN LORENZO                                                 010701                                 CI 1242794                                                     N000000172
0136   0012701075430                                                  USD20211202                                                               000000000000001552980000680534            BR                                                                        PYSAN LORENZO                                                 010701                                 CI 3661537                                                     N000000173
0136   0012701075441                                                  USD20211202                                                               000000000000000350000000680534            US                                                                        PYSAN LORENZO                                                 010701                                 CI 4381831                                                     N000000174
0136   0012701075446                                                  USD20211202                                                               000000000000000150000000680534            US                                                                        PYSAN LORENZO                                                 010701                                 CI 638069                                                      N000000175
0136   0012701075452                                                  USD20211202                                                               000000000000000100000000680534            US                                                                        PYSAN LORENZO                                                 010701                                 CI 5216542                                                     N000000176
0136   0012701075456                                                  USD20211202                                                               000000000000000189000000680534            US                                                                        PYSAN LORENZO                                                 010701                                 CI 1888626                                                     N000000177
0136   0012701075481                                                  USD20211202                                                               000000000000000350000000680534            US                                                                        PYSAN LORENZO                                                 010701                                 CI 3681711                                                     N000000178
0136   0012701075494                                                  USD20211202                                                               000000000000000150000000680534            BO                                                                        PYSAN LORENZO                                                 010701                                 CI 3221583                                                     N000000179
0136   0012701075523                                                  USD20211202                                                               000000000000002500000000680534            US                                                                        PYSAN LORENZO                                                 010701                                 CI 6009060                                                     N000000180
0136   0012701075527                                                  USD20211202                                                               000000000000000700000000680534            US                                                                        PYSAN LORENZO                                                 010701                                 CI 548531                                                      N000000181
0136   0012701075538                                                  USD20211202                                                               000000000000000100000000680534            US                                                                        PYSAN LORENZO                                                 010701                                 CI 2002091                                                     N000000182
0136   0012701075543                                                  USD20211202                                                               000000000000000157100000680534            JP                                                                        PYSAN LORENZO                                                 010701                                 CI 1352665                                                     N000000183
0136   0022701075578                                                  USD20211202CI 2315557                                                     000000000000000032940000680534            PYSAN LORENZO                                                             ARBUENOS AIRES                                                010701                                                                                                N000000184
0136   0012701075587                                                  USD20211202                                                               000000000000001000000000680534            US                                                                        PYSAN LORENZO                                                 010701                                 CI 5968204                                                     N000000185
0136   0022701075591                                                  USD20211202CI 2386572                                                     000000000000000102000000680534            PYSAN LORENZO                                                             ARFORMOSA                                                     010701                                                                                                N000000186
0136   0012701075637                                                  USD20211202                                                               000000000000000750000000680534            US                                                                        PYSAN LORENZO                                                 010701                                 CI 3707619                                                     N000000187
0136   0012701075643                                                  USD20211202                                                               000000000000000700000000680534            US                                                                        PYSAN LORENZO                                                 010701                                 CI 446332                                                      N000000188
0136   0012701075668                                                  USD20211202                                                               000000000000000200000000680534            US                                                                        PYSAN LORENZO                                                 010701                                 CI 2668455                                                     N000000189
0136   0012701075681                                                  USD20211202                                                               000000000000000200000000680534            US                                                                        PYSAN LORENZO                                                 010701                                 CI 1419470                                                     N000000190
0136   0012701075682                                                  USD20211202                                                               000000000000000220000000680534            US                                                                        PYSAN LORENZO                                                 010701                                 CI 1419470                                                     N000000191
01315  0012902907532                                                  USD20211202                                                               000000000000000020000000680534            CO                                                                        PYCIUDAD DEL ESTE                                             010701                                 CI 1384007                                                     N000000192
01321  0013301184965                                                  USD20211202                                                               000000000000000500000000680534            US                                                                        PYENCARNACION                                                 010701                                 CI 793910                                                      N000000193
01321  0013301184978                                                  USD20211202                                                               000000000000000073130000680534            ES                                                                        PYENCARNACION                                                 010701                                 CI 5610797                                                     N000000194
01321  0013301184991                                                  USD20211202                                                               000000000000000959290000680534            PL                                                                        PYENCARNACION                                                 010701                                 CRCAR6170971                                                   N000000195
01321  0013301185004                                                  USD20211202                                                               000000000000000139990000680534            AR                                                                        PYENCARNACION                                                 010701                                 CI 3772616                                                     N000000196
01321  0013301185021                                                  USD20211202                                                               000000000000000700000000680534            US                                                                        PYENCARNACION                                                 010701                                 CI 709951                                                      N000000197
01321  0023301185036                                                  USD20211202CI 943677                                                      000000000000000050000000680534            PYENCARNACION                                                             COCUCUTA                                                      010701                                                                                                N000000198
01321  0013301185040                                                  USD20211202                                                               000000000000000100000000680534            US                                                                        PYENCARNACION                                                 010701                                 CI 1335310                                                     N000000199
01321  0023301185071                                                  USD20211202CI 2041744                                                     000000000000000220000000680534            PYENCARNACION                                                             BRSAO PAULO                                                   010701                                                                                                N000000200
01321  0023301185082                                                  USD20211202CI 1689363                                                     000000000000000062000000680534            PYENCARNACION                                                             ARBUENOS AIRES                                                010701                                                                                                N000000201
01321  0013301185123                                                  USD20211202                                                               000000000000000021470000680534            AR                                                                        PYENCARNACION                                                 010701                                 CI 3686741                                                     N000000202
01325  0023901073383                                                  USD20211202CI 4012666                                                     000000000000000236000000680534            PYCIUDAD DEL ESTE                                                         BR                                                            010701                                                                                                N000000203
01325  0013901073394                                                  USD20211202                                                               000000000000000100000000680534            US                                                                        PYCIUDAD DEL ESTE                                             010701                                 CI 1873977                                                     N000000204
01325  0013901073398                                                  USD20211202                                                               000000000000000043930000680534            ES                                                                        PYCIUDAD DEL ESTE                                             010701                                 CI 731755                                                      N000000205
01325  0023901073437                                                  USD20211202CI 4952809                                                     000000000000000570000000680534            PYCIUDAD DEL ESTE                                                         MX                                                            010701                                                                                                N000000206
01325  0013901073477                                                  USD20211202                                                               000000000000000250000000680534            US                                                                        PYCIUDAD DEL ESTE                                             010701                                 CI 4563084                                                     N000000207
01325  0013901073500                                                  USD20211202                                                               000000000000000050000000680534            US                                                                        PYCIUDAD DEL ESTE                                             010701                                 CI 2358074                                                     N000000208
01325  0013901073511                                                  USD20211202                                                               000000000000000470000000680534            US                                                                        PYCIUDAD DEL ESTE                                             010701                                 CI 1477012                                                     N000000209
01325  0013901073514                                                  USD20211202                                                               000000000000000150000000680534            US                                                                        PYCIUDAD DEL ESTE                                             010701                                 CI 3184371                                                     N000000210
01325  0013901073552                                                  USD20211202                                                               000000000000000550000000680534            US                                                                        PYCIUDAD DEL ESTE                                             010701                                 CI 1245576                                                     N000000211
01310  0024000969892                                                  USD20211202CI 457335                                                      000000000000000450000000680534            PYLAMBARE                                                                 US                                                            010701                                                                                                N000000212
01310  0014000969894                                                  USD20211202                                                               000000000000000028000000680534            AR                                                                        PYLAMBARE                                                     010701                                 CI 181554                                                      N000000213
01310  0014000969905                                                  USD20211202                                                               000000000000001000000000680534            US                                                                        PYLAMBARE                                                     010701                                 CI 1235979                                                     N000000214
01310  0014000969912                                                  USD20211202                                                               000000000000000250000000680534            US                                                                        PYLAMBARE                                                     010701                                 CI 294989                                                      N000000215
01310  0024000969923                                                  USD20211202CI 1398107                                                     000000000000000260000000680534            PYLAMBARE                                                                 UYMONTEVIDEO                                                  010701                                                                                                N000000216
01310  0024000969931                                                  USD20211202CRCMXG22079978                                                 000000000000000504000000680534            PYLAMBARE                                                                 MX                                                            010701                                                                                                N000000217
01310  0014000969937                                                  USD20211202                                                               000000000000000340000000680534            US                                                                        PYLAMBARE                                                     010701                                 CI 4709496                                                     N000000218
01310  0014000969944                                                  USD20211202                                                               000000000000000049420000680534            ES                                                                        PYLAMBARE                                                     010701                                 CI 3538751                                                     N000000219
01310  0014000969947                                                  USD20211202                                                               000000000000000138110000680534            CL                                                                        PYLAMBARE                                                     010701                                 CI 4435879                                                     N000000220
01310  0014000969954                                                  USD20211202                                                               000000000000000048050000680534            ES                                                                        PYLAMBARE                                                     010701                                 CI 881488                                                      N000000221
01310  0014000969955                                                  USD20211202                                                               000000000000000200000000680534            ES                                                                        PYLAMBARE                                                     010701                                 CI 881488                                                      N000000222
01310  0014000969957                                                  USD20211202                                                               000000000000000990000000680534            US                                                                        PYLAMBARE                                                     010701                                 CI 1735835                                                     N000000223
01310  0014000969961                                                  USD20211202                                                               000000000000000507210000680534            ML                                                                        PYLAMBARE                                                     010701                                 CI 2483922                                                     N000000224
01310  0014000969965                                                  USD20211202                                                               000000000000000200000000680534            US                                                                        PYLAMBARE                                                     010701                                 CI 3492544                                                     N000000225
01310  0014000969969                                                  USD20211202                                                               000000000000000222800000680534            US                                                                        PYLAMBARE                                                     010701                                 CI 3688581                                                     N000000226
01310  0014000969976                                                  USD20211202                                                               000000000000001200000000680534            US                                                                        PYLAMBARE                                                     010701                                 CI 785511                                                      N000000227
01310  0014000969979                                                  USD20211202                                                               000000000000001258040000680534            MX                                                                        PYLAMBARE                                                     010701                                 CI 4271848                                                     N000000228
01310  0014000969987                                                  USD20211202                                                               000000000000000109340000680534            BR                                                                        PYLAMBARE                                                     010701                                 CI 4478450                                                     N000000229
